{
  "contractName": "GovtDetails",
  "abi": [
    {
      "anonymous": false,
      "inputs": [
        {
          "indexed": false,
          "internalType": "address",
          "name": "_who",
          "type": "address"
        }
      ],
      "name": "ContractorAdded",
      "type": "event"
    },
    {
      "anonymous": false,
      "inputs": [
        {
          "indexed": true,
          "internalType": "address",
          "name": "previousOwner",
          "type": "address"
        },
        {
          "indexed": true,
          "internalType": "address",
          "name": "newOwner",
          "type": "address"
        }
      ],
      "name": "OwnershipTransferred",
      "type": "event"
    },
    {
      "inputs": [],
      "name": "govtAddress",
      "outputs": [
        {
          "internalType": "address",
          "name": "",
          "type": "address"
        }
      ],
      "stateMutability": "view",
      "type": "function",
      "constant": true
    },
    {
      "inputs": [
        {
          "internalType": "address",
          "name": "",
          "type": "address"
        }
      ],
      "name": "isConstituency",
      "outputs": [
        {
          "internalType": "bool",
          "name": "",
          "type": "bool"
        }
      ],
      "stateMutability": "view",
      "type": "function",
      "constant": true
    },
    {
      "inputs": [
        {
          "internalType": "address",
          "name": "",
          "type": "address"
        }
      ],
      "name": "isContractor",
      "outputs": [
        {
          "internalType": "bool",
          "name": "",
          "type": "bool"
        }
      ],
      "stateMutability": "view",
      "type": "function",
      "constant": true
    },
    {
      "inputs": [],
      "name": "owner",
      "outputs": [
        {
          "internalType": "address",
          "name": "",
          "type": "address"
        }
      ],
      "stateMutability": "view",
      "type": "function",
      "constant": true
    },
    {
      "inputs": [],
      "name": "renounceOwnership",
      "outputs": [],
      "stateMutability": "nonpayable",
      "type": "function"
    },
    {
      "inputs": [
        {
          "internalType": "address",
          "name": "newOwner",
          "type": "address"
        }
      ],
      "name": "transferOwnership",
      "outputs": [],
      "stateMutability": "nonpayable",
      "type": "function"
    },
    {
      "inputs": [
        {
          "internalType": "string",
          "name": "cName",
          "type": "string"
        }
      ],
      "name": "getConstituencyAddress",
      "outputs": [
        {
          "internalType": "address",
          "name": "",
          "type": "address"
        }
      ],
      "stateMutability": "view",
      "type": "function",
      "constant": true
    },
    {
      "inputs": [
        {
          "internalType": "string",
          "name": "cName",
          "type": "string"
        },
        {
          "internalType": "address",
          "name": "_addr",
          "type": "address"
        }
      ],
      "name": "setConstituencyAddress",
      "outputs": [],
      "stateMutability": "nonpayable",
      "type": "function"
    },
    {
      "inputs": [
        {
          "internalType": "address",
          "name": "_addr",
          "type": "address"
        }
      ],
      "name": "setGovtAddress",
      "outputs": [],
      "stateMutability": "nonpayable",
      "type": "function"
    },
    {
      "inputs": [
        {
          "internalType": "address",
          "name": "_addr",
          "type": "address"
        }
      ],
      "name": "setContractor",
      "outputs": [],
      "stateMutability": "nonpayable",
      "type": "function"
    }
  ],
  "bytecode": "0x608060405234801561001057600080fd5b5060006100216100c460201b60201c565b9050806000806101000a81548173ffffffffffffffffffffffffffffffffffffffff021916908373ffffffffffffffffffffffffffffffffffffffff1602179055508073ffffffffffffffffffffffffffffffffffffffff16600073ffffffffffffffffffffffffffffffffffffffff167f8be0079c531659141344cd1fd0a4f28419497f9722a3daafe3b4186f6b6457e060405160405180910390a3506100cc565b600033905090565b610d26806100db6000396000f3fe608060405234801561001057600080fd5b506004361061009e5760003560e01c8063a4bee76911610066578063a4bee76914610133578063af86e05414610163578063b103e46a1461017f578063d2445c89146101af578063f2fde38b146101cd5761009e565b80634aac4525146100a3578063715018a6146100bf57806372b73b05146100c9578063790d5750146100f95780638da5cb5b14610115575b600080fd5b6100bd60048036038101906100b89190610902565b6101e9565b005b6100c761027b565b005b6100e360048036038101906100de9190610902565b6103b5565b6040516100f09190610b27565b60405180910390f35b610113600480360381019061010e9190610902565b6103d5565b005b61011d610495565b60405161012a9190610b0c565b60405180910390f35b61014d60048036038101906101489190610902565b6104be565b60405161015a9190610b27565b60405180910390f35b61017d6004803603810190610178919061096c565b6104de565b005b6101996004803603810190610194919061092b565b610597565b6040516101a69190610b0c565b60405180910390f35b6101b76106ae565b6040516101c49190610b0c565b60405180910390f35b6101e760048036038101906101e29190610902565b6106d4565b005b6001600360008373ffffffffffffffffffffffffffffffffffffffff1673ffffffffffffffffffffffffffffffffffffffff16815260200190815260200160002060006101000a81548160ff0219169083151502179055507f29dc23bcd72bfb02ec013f6350778cb6e5908dc02e5e1234385f27e32676b6e1816040516102709190610b0c565b60405180910390a150565b61028361087d565b73ffffffffffffffffffffffffffffffffffffffff166102a1610495565b73ffffffffffffffffffffffffffffffffffffffff16146102f7576040517f08c379a00000000000000000000000000000000000000000000000000000000081526004016102ee90610b82565b60405180910390fd5b600073ffffffffffffffffffffffffffffffffffffffff1660008054906101000a900473ffffffffffffffffffffffffffffffffffffffff1673ffffffffffffffffffffffffffffffffffffffff167f8be0079c531659141344cd1fd0a4f28419497f9722a3daafe3b4186f6b6457e060405160405180910390a360008060006101000a81548173ffffffffffffffffffffffffffffffffffffffff021916908373ffffffffffffffffffffffffffffffffffffffff160217905550565b60036020528060005260406000206000915054906101000a900460ff1681565b6103dd61087d565b73ffffffffffffffffffffffffffffffffffffffff166103fb610495565b73ffffffffffffffffffffffffffffffffffffffff1614610451576040517f08c379a000000000000000000000000000000000000000000000000000000000815260040161044890610b82565b60405180910390fd5b80600160006101000a81548173ffffffffffffffffffffffffffffffffffffffff021916908373ffffffffffffffffffffffffffffffffffffffff16021790555050565b60008060009054906101000a900473ffffffffffffffffffffffffffffffffffffffff16905090565b60046020528060005260406000206000915054906101000a900460ff1681565b806002836040516104ef9190610af5565b908152602001604051809103902060006101000a81548173ffffffffffffffffffffffffffffffffffffffff021916908373ffffffffffffffffffffffffffffffffffffffff1602179055506001600460008373ffffffffffffffffffffffffffffffffffffffff1673ffffffffffffffffffffffffffffffffffffffff16815260200190815260200160002060006101000a81548160ff0219169083151502179055505050565b6000600560009054906101000a900473ffffffffffffffffffffffffffffffffffffffff1673ffffffffffffffffffffffffffffffffffffffff166002836040516105e29190610af5565b908152602001604051809103902060009054906101000a900473ffffffffffffffffffffffffffffffffffffffff1673ffffffffffffffffffffffffffffffffffffffff161415610668576040517f08c379a000000000000000000000000000000000000000000000000000000000815260040161065f90610b62565b60405180910390fd5b6002826040516106789190610af5565b908152602001604051809103902060009054906101000a900473ffffffffffffffffffffffffffffffffffffffff169050919050565b600160009054906101000a900473ffffffffffffffffffffffffffffffffffffffff1681565b6106dc61087d565b73ffffffffffffffffffffffffffffffffffffffff166106fa610495565b73ffffffffffffffffffffffffffffffffffffffff1614610750576040517f08c379a000000000000000000000000000000000000000000000000000000000815260040161074790610b82565b60405180910390fd5b600073ffffffffffffffffffffffffffffffffffffffff168173ffffffffffffffffffffffffffffffffffffffff1614156107c0576040517f08c379a00000000000000000000000000000000000000000000000000000000081526004016107b790610b42565b60405180910390fd5b8073ffffffffffffffffffffffffffffffffffffffff1660008054906101000a900473ffffffffffffffffffffffffffffffffffffffff1673ffffffffffffffffffffffffffffffffffffffff167f8be0079c531659141344cd1fd0a4f28419497f9722a3daafe3b4186f6b6457e060405160405180910390a3806000806101000a81548173ffffffffffffffffffffffffffffffffffffffff021916908373ffffffffffffffffffffffffffffffffffffffff16021790555050565b600033905090565b600061089861089384610bd3565b610ba2565b9050828152602081018484840111156108b057600080fd5b6108bb848285610c68565b509392505050565b6000813590506108d281610cd9565b92915050565b600082601f8301126108e957600080fd5b81356108f9848260208601610885565b91505092915050565b60006020828403121561091457600080fd5b6000610922848285016108c3565b91505092915050565b60006020828403121561093d57600080fd5b600082013567ffffffffffffffff81111561095757600080fd5b610963848285016108d8565b91505092915050565b6000806040838503121561097f57600080fd5b600083013567ffffffffffffffff81111561099957600080fd5b6109a5858286016108d8565b92505060206109b6858286016108c3565b9150509250929050565b6109c981610c2a565b82525050565b6109d881610c3c565b82525050565b60006109e982610c03565b6109f38185610c1f565b9350610a03818560208601610c77565b80840191505092915050565b6000610a1c602683610c0e565b91507f4f776e61626c653a206e6577206f776e657220697320746865207a65726f206160008301527f64647265737300000000000000000000000000000000000000000000000000006020830152604082019050919050565b6000610a82601d83610c0e565b91507f436f6e7374697475656e6379204e616d6520697320696e76616c69642e0000006000830152602082019050919050565b6000610ac2602083610c0e565b91507f4f776e61626c653a2063616c6c6572206973206e6f7420746865206f776e65726000830152602082019050919050565b6000610b0182846109de565b915081905092915050565b6000602082019050610b2160008301846109c0565b92915050565b6000602082019050610b3c60008301846109cf565b92915050565b60006020820190508181036000830152610b5b81610a0f565b9050919050565b60006020820190508181036000830152610b7b81610a75565b9050919050565b60006020820190508181036000830152610b9b81610ab5565b9050919050565b6000604051905081810181811067ffffffffffffffff82111715610bc957610bc8610caa565b5b8060405250919050565b600067ffffffffffffffff821115610bee57610bed610caa565b5b601f19601f8301169050602081019050919050565b600081519050919050565b600082825260208201905092915050565b600081905092915050565b6000610c3582610c48565b9050919050565b60008115159050919050565b600073ffffffffffffffffffffffffffffffffffffffff82169050919050565b82818337600083830152505050565b60005b83811015610c95578082015181840152602081019050610c7a565b83811115610ca4576000848401525b50505050565b7f4e487b7100000000000000000000000000000000000000000000000000000000600052604160045260246000fd5b610ce281610c2a565b8114610ced57600080fd5b5056fea26469706673582212205e793642a82fbfa125612442256cca364c272096a6fd02e12266bc69e067821364736f6c63430008000033",
  "immutableReferences": {},
  "source": "//SPDX-License-Identifier: UNLICENSED\npragma solidity ^0.8.0;\n\nimport \"@openzeppelin/contracts/access/Ownable.sol\";\n\ncontract GovtDetails is Ownable {\n    address public govtAddress;\n    mapping(string => address) constituencyAddress;\n    mapping(address => bool) public isContractor;\n    mapping(address => bool) public isConstituency;\n    address emptyAddress;\n\n    event ContractorAdded(address _who);\n\n    modifier onlyConstituency() {\n        require(\n            isConstituency[msg.sender],\n            \"You are not allowed to do this action\"\n        );\n        _;\n    }\n\n    modifier onlyGovt() {\n        require(\n            msg.sender == govtAddress,\n            \"You are not allowed to do this action\"\n        );\n        _;\n    }\n\n    function getConstituencyAddress(string memory cName)\n        public\n        view\n        returns (address)\n    {\n        require(\n            constituencyAddress[cName] != emptyAddress,\n            \"Constituency Name is invalid.\"\n        );\n        return constituencyAddress[cName];\n    }\n\n    function setConstituencyAddress(string memory cName, address _addr) public {\n        constituencyAddress[cName] = _addr;\n        isConstituency[_addr] = true;\n    }\n\n    function setGovtAddress(address _addr) public onlyOwner {\n        govtAddress = _addr;\n    }\n\n    function setContractor(address _addr) public {\n        isContractor[_addr] = true;\n        emit ContractorAdded(_addr);\n    }\n}\n",
  "sourcePath": "/Users/agrim/Desktop/Coding work/BlockchainDev/TaxChain/contracts/GovtDetails.sol",
  "compiler": {
    "name": "solc",
    "version": "0.8.0+commit.c7dfd78e.Emscripten.clang"
  },
  "schemaVersion": "3.4.0",
  "updatedAt": "2021-05-08T21:53:44.196Z",
  "networkType": "ethereum",
  "devdoc": {
    "kind": "dev",
    "methods": {
      "owner()": {
        "details": "Returns the address of the current owner."
      },
      "renounceOwnership()": {
        "details": "Leaves the contract without owner. It will not be possible to call `onlyOwner` functions anymore. Can only be called by the current owner. NOTE: Renouncing ownership will leave the contract without an owner, thereby removing any functionality that is only available to the owner."
      },
      "transferOwnership(address)": {
        "details": "Transfers ownership of the contract to a new account (`newOwner`). Can only be called by the current owner."
      }
    },
    "version": 1
  },
  "userdoc": {
    "kind": "user",
    "methods": {},
    "version": 1
  }
}