{
  "contractName": "GovtAllocate",
  "abi": [
    {
      "inputs": [
        {
          "internalType": "contract GovtDetails",
          "name": "_gov",
          "type": "address"
        }
      ],
      "stateMutability": "nonpayable",
      "type": "constructor"
    },
    {
      "anonymous": false,
      "inputs": [
        {
          "indexed": false,
          "internalType": "string",
          "name": "cName",
          "type": "string"
        },
        {
          "indexed": false,
          "internalType": "uint256",
          "name": "prevAmount",
          "type": "uint256"
        },
        {
          "indexed": false,
          "internalType": "uint256",
          "name": "newAmount",
          "type": "uint256"
        }
      ],
      "name": "AllocationDone",
      "type": "event"
    },
    {
      "inputs": [
        {
          "internalType": "address",
          "name": "",
          "type": "address"
        }
      ],
      "name": "allocations",
      "outputs": [
        {
          "internalType": "uint256",
          "name": "",
          "type": "uint256"
        }
      ],
      "stateMutability": "view",
      "type": "function",
      "constant": true
    },
    {
      "inputs": [
        {
          "internalType": "string",
          "name": "constituency",
          "type": "string"
        }
      ],
      "name": "allocateFunds",
      "outputs": [],
      "stateMutability": "payable",
      "type": "function",
      "payable": true
    },
    {
      "inputs": [
        {
          "internalType": "string",
          "name": "constituency",
          "type": "string"
        }
      ],
      "name": "getAllocation",
      "outputs": [
        {
          "internalType": "uint256",
          "name": "",
          "type": "uint256"
        }
      ],
      "stateMutability": "view",
      "type": "function",
      "constant": true
    }
  ],
  "bytecode": "0x608060405234801561001057600080fd5b506040516109393803806109398339818101604052810190610032919061008e565b80600160006101000a81548173ffffffffffffffffffffffffffffffffffffffff021916908373ffffffffffffffffffffffffffffffffffffffff16021790555050610112565b600081519050610088816100fb565b92915050565b6000602082840312156100a057600080fd5b60006100ae84828501610079565b91505092915050565b60006100c2826100db565b9050919050565b60006100d4826100b7565b9050919050565b600073ffffffffffffffffffffffffffffffffffffffff82169050919050565b610104816100c9565b811461010f57600080fd5b50565b610818806101216000396000f3fe6080604052600436106100345760003560e01c806302c35e8e1461003957806352a9039c14610076578063796bd7f9146100b3575b600080fd5b34801561004557600080fd5b50610060600480360381019061005b91906104d3565b6100cf565b60405161006d91906105bc565b60405180910390f35b34801561008257600080fd5b5061009d60048036038101906100989190610481565b6101c6565b6040516100aa91906105bc565b60405180910390f35b6100cd60048036038101906100c891906104d3565b6101de565b005b600080600160009054906101000a900473ffffffffffffffffffffffffffffffffffffffff1673ffffffffffffffffffffffffffffffffffffffff1663b103e46a846040518263ffffffff1660e01b815260040161012d919061055c565b60206040518083038186803b15801561014557600080fd5b505afa158015610159573d6000803e3d6000fd5b505050506040513d601f19601f8201168201806040525081019061017d91906104aa565b90506000808273ffffffffffffffffffffffffffffffffffffffff1673ffffffffffffffffffffffffffffffffffffffff16815260200190815260200160002054915050919050565b60006020528060005260406000206000915090505481565b6000600160009054906101000a900473ffffffffffffffffffffffffffffffffffffffff1673ffffffffffffffffffffffffffffffffffffffff1663b103e46a836040518263ffffffff1660e01b815260040161023b919061055c565b60206040518083038186803b15801561025357600080fd5b505afa158015610267573d6000803e3d6000fd5b505050506040513d601f19601f8201168201806040525081019061028b91906104aa565b9050346000808373ffffffffffffffffffffffffffffffffffffffff1673ffffffffffffffffffffffffffffffffffffffff16815260200190815260200160002060008282546102db9190610654565b925050819055508073ffffffffffffffffffffffffffffffffffffffff166108fc349081150290604051600060405180830381858888f19350505050158015610328573d6000803e3d6000fd5b507f583f09efd4b254ea19e056dba6351727d33f15d8f1345de9f8b4b9f4e13100a782346000808573ffffffffffffffffffffffffffffffffffffffff1673ffffffffffffffffffffffffffffffffffffffff1681526020019081526020016000205461039591906106aa565b6000808573ffffffffffffffffffffffffffffffffffffffff1673ffffffffffffffffffffffffffffffffffffffff168152602001908152602001600020546040516103e39392919061057e565b60405180910390a15050565b60006104026103fd84610608565b6105d7565b90508281526020810184848401111561041a57600080fd5b61042584828561071a565b509392505050565b60008135905061043c816107cb565b92915050565b600081519050610451816107cb565b92915050565b600082601f83011261046857600080fd5b81356104788482602086016103ef565b91505092915050565b60006020828403121561049357600080fd5b60006104a18482850161042d565b91505092915050565b6000602082840312156104bc57600080fd5b60006104ca84828501610442565b91505092915050565b6000602082840312156104e557600080fd5b600082013567ffffffffffffffff8111156104ff57600080fd5b61050b84828501610457565b91505092915050565b600061051f82610638565b6105298185610643565b9350610539818560208601610729565b610542816107ba565b840191505092915050565b61055681610710565b82525050565b600060208201905081810360008301526105768184610514565b905092915050565b600060608201905081810360008301526105988186610514565b90506105a7602083018561054d565b6105b4604083018461054d565b949350505050565b60006020820190506105d1600083018461054d565b92915050565b6000604051905081810181811067ffffffffffffffff821117156105fe576105fd61078b565b5b8060405250919050565b600067ffffffffffffffff8211156106235761062261078b565b5b601f19601f8301169050602081019050919050565b600081519050919050565b600082825260208201905092915050565b600061065f82610710565b915061066a83610710565b9250827fffffffffffffffffffffffffffffffffffffffffffffffffffffffffffffffff0382111561069f5761069e61075c565b5b828201905092915050565b60006106b582610710565b91506106c083610710565b9250828210156106d3576106d261075c565b5b828203905092915050565b60006106e9826106f0565b9050919050565b600073ffffffffffffffffffffffffffffffffffffffff82169050919050565b6000819050919050565b82818337600083830152505050565b60005b8381101561074757808201518184015260208101905061072c565b83811115610756576000848401525b50505050565b7f4e487b7100000000000000000000000000000000000000000000000000000000600052601160045260246000fd5b7f4e487b7100000000000000000000000000000000000000000000000000000000600052604160045260246000fd5b6000601f19601f8301169050919050565b6107d4816106de565b81146107df57600080fd5b5056fea26469706673582212200c9ef26ae0c9e22379dfdf1198ec0585bc9d8aac5e2fed3f7212ba844508ce4b64736f6c63430008000033",
  "immutableReferences": {},
  "source": "//SPDX-License-Identifier: UNLICENSED\npragma solidity ^0.8.0;\n\nimport \"./GovtDetails.sol\";\n\ncontract GovtAllocate {\n    mapping(address => uint256) public allocations;\n\n    GovtDetails gov;\n\n    event AllocationDone(string cName, uint256 prevAmount, uint256 newAmount);\n\n    modifier OnlyGov() {\n        address govtAddress = gov.govtAddress();\n        require(\n            msg.sender == govtAddress,\n            \"You are not allowed to do this action\"\n        );\n        _;\n    }\n\n    constructor(GovtDetails _gov) {\n        gov = _gov;\n    }\n\n    function allocateFunds(string memory constituency) public payable {\n        address payable constituencyAddress =\n            payable(gov.getConstituencyAddress(constituency));\n        allocations[constituencyAddress] += msg.value;\n        constituencyAddress.transfer(msg.value);\n        emit AllocationDone(\n            constituency,\n            allocations[constituencyAddress] - msg.value,\n            allocations[constituencyAddress]\n        );\n    }\n\n    function getAllocation(string memory constituency)\n        public\n        view\n        returns (uint256)\n    {\n        address constituencyAddress = gov.getConstituencyAddress(constituency);\n        return allocations[constituencyAddress];\n    }\n}\n",
  "sourcePath": "/Users/agrim/Desktop/Coding work/BlockchainDev/TaxChain/contracts/GovtAllocate.sol",
  "compiler": {
    "name": "solc",
    "version": "0.8.0+commit.c7dfd78e.Emscripten.clang"
  },
  "schemaVersion": "3.4.0",
  "updatedAt": "2021-05-08T21:53:44.229Z",
  "networkType": "ethereum",
  "devdoc": {
    "kind": "dev",
    "methods": {},
    "version": 1
  },
  "userdoc": {
    "kind": "user",
    "methods": {},
    "version": 1
  }
}