{
  "contractName": "KYC",
  "abi": [
    {
      "inputs": [
        {
          "internalType": "address",
          "name": "_address",
          "type": "address"
        }
      ],
      "name": "completeKYC",
      "outputs": [],
      "stateMutability": "nonpayable",
      "type": "function"
    },
    {
      "inputs": [
        {
          "internalType": "address",
          "name": "_address",
          "type": "address"
        }
      ],
      "name": "rejectKYC",
      "outputs": [],
      "stateMutability": "nonpayable",
      "type": "function"
    },
    {
      "inputs": [
        {
          "internalType": "address",
          "name": "_address",
          "type": "address"
        }
      ],
      "name": "getKYC",
      "outputs": [
        {
          "internalType": "bool",
          "name": "",
          "type": "bool"
        }
      ],
      "stateMutability": "view",
      "type": "function",
      "constant": true
    }
  ],
  "bytecode": "0x608060405234801561001057600080fd5b506102aa806100206000396000f3fe608060405234801561001057600080fd5b50600436106100415760003560e01c80634d1a687d14610046578063c42e588814610076578063da4f2b7214610092575b600080fd5b610060600480360381019061005b91906101cc565b6100ae565b60405161006d9190610204565b60405180910390f35b610090600480360381019061008b91906101cc565b610103565b005b6100ac60048036038101906100a791906101cc565b61015d565b005b60008060008373ffffffffffffffffffffffffffffffffffffffff1673ffffffffffffffffffffffffffffffffffffffff16815260200190815260200160002060009054906101000a900460ff169050919050565b60008060008373ffffffffffffffffffffffffffffffffffffffff1673ffffffffffffffffffffffffffffffffffffffff16815260200190815260200160002060006101000a81548160ff02191690831515021790555050565b60016000808373ffffffffffffffffffffffffffffffffffffffff1673ffffffffffffffffffffffffffffffffffffffff16815260200190815260200160002060006101000a81548160ff02191690831515021790555050565b6000813590506101c68161025d565b92915050565b6000602082840312156101de57600080fd5b60006101ec848285016101b7565b91505092915050565b6101fe81610231565b82525050565b600060208201905061021960008301846101f5565b92915050565b600061022a8261023d565b9050919050565b60008115159050919050565b600073ffffffffffffffffffffffffffffffffffffffff82169050919050565b6102668161021f565b811461027157600080fd5b5056fea2646970667358221220be449bd0d58e5e4b631feda040486b9f7f3505079905b0049c7016d6b5ca674b64736f6c63430008000033",
  "immutableReferences": {},
  "source": "//SPDX-License-Identifier: UNLICENSED;\npragma solidity ^0.8.0;\n\n\ncontract KYC {\n    mapping(address=>bool) allowed;\n\n    function completeKYC(address _address) public {\n        allowed[_address] = true;\n    }\n    function rejectKYC(address _address) public {\n        allowed[_address] = false;\n    }\n\n    function getKYC(address _address) public view returns(bool){\n        return allowed[_address];\n    }\n}",
  "sourcePath": "/Users/agrim/Desktop/Coding work/BlockchainDev/TaxChain/contracts/KYC.sol",
  "compiler": {
    "name": "solc",
    "version": "0.8.0+commit.c7dfd78e.Emscripten.clang"
  },
  "schemaVersion": "3.4.0",
  "updatedAt": "2021-05-08T21:53:44.187Z",
  "networkType": "ethereum",
  "devdoc": {
    "kind": "dev",
    "methods": {},
    "version": 1
  },
  "userdoc": {
    "kind": "user",
    "methods": {},
    "version": 1
  }
}