{
  "contractName": "Transact",
  "abi": [
    {
      "inputs": [
        {
          "internalType": "contract KYC",
          "name": "_kyc",
          "type": "address"
        },
        {
          "internalType": "contract GovtDetails",
          "name": "_govt",
          "type": "address"
        }
      ],
      "stateMutability": "nonpayable",
      "type": "constructor"
    },
    {
      "anonymous": false,
      "inputs": [
        {
          "indexed": false,
          "internalType": "address",
          "name": "_who",
          "type": "address"
        },
        {
          "indexed": false,
          "internalType": "uint256",
          "name": "taxBefore",
          "type": "uint256"
        },
        {
          "indexed": false,
          "internalType": "uint256",
          "name": "taxAfter",
          "type": "uint256"
        }
      ],
      "name": "TaxPaid",
      "type": "event"
    },
    {
      "inputs": [
        {
          "internalType": "address",
          "name": "",
          "type": "address"
        }
      ],
      "name": "taxPaid",
      "outputs": [
        {
          "internalType": "uint256",
          "name": "",
          "type": "uint256"
        }
      ],
      "stateMutability": "view",
      "type": "function",
      "constant": true
    },
    {
      "inputs": [
        {
          "internalType": "address",
          "name": "",
          "type": "address"
        }
      ],
      "name": "tokenBalance",
      "outputs": [
        {
          "internalType": "uint256",
          "name": "",
          "type": "uint256"
        }
      ],
      "stateMutability": "view",
      "type": "function",
      "constant": true
    },
    {
      "stateMutability": "payable",
      "type": "receive",
      "payable": true
    },
    {
      "inputs": [
        {
          "internalType": "uint256",
          "name": "amount",
          "type": "uint256"
        }
      ],
      "name": "payTax",
      "outputs": [],
      "stateMutability": "nonpayable",
      "type": "function"
    }
  ],
  "bytecode": "0x608060405234801561001057600080fd5b5060405162000ba738038062000ba7833981810160405281019061003491906100e7565b81600260006101000a81548173ffffffffffffffffffffffffffffffffffffffff021916908373ffffffffffffffffffffffffffffffffffffffff16021790555080600360006101000a81548173ffffffffffffffffffffffffffffffffffffffff021916908373ffffffffffffffffffffffffffffffffffffffff16021790555050506101a7565b6000815190506100cc81610179565b92915050565b6000815190506100e181610190565b92915050565b600080604083850312156100fa57600080fd5b6000610108858286016100d2565b9250506020610119858286016100bd565b9150509250929050565b600061012e82610159565b9050919050565b600061014082610123565b9050919050565b600061015282610123565b9050919050565b600073ffffffffffffffffffffffffffffffffffffffff82169050919050565b61018281610135565b811461018d57600080fd5b50565b61019981610147565b81146101a457600080fd5b50565b6109f080620001b76000396000f3fe6080604052600436106100385760003560e01c8063a05aaf5014610183578063a988e371146101ac578063eedc966a146101e95761017e565b3661017e57600260009054906101000a900473ffffffffffffffffffffffffffffffffffffffff1673ffffffffffffffffffffffffffffffffffffffff16634d1a687d336040518263ffffffff1660e01b815260040161009891906107b6565b60206040518083038186803b1580156100b057600080fd5b505afa1580156100c4573d6000803e3d6000fd5b505050506040513d601f19601f820116820180604052508101906100e891906106c6565b610127576040517f08c379a000000000000000000000000000000000000000000000000000000000815260040161011e90610808565b60405180910390fd5b346000803373ffffffffffffffffffffffffffffffffffffffff1673ffffffffffffffffffffffffffffffffffffffff16815260200190815260200160002060008282546101759190610874565b92505081905550005b600080fd5b34801561018f57600080fd5b506101aa60048036038101906101a591906106ef565b610226565b005b3480156101b857600080fd5b506101d360048036038101906101ce9190610674565b6105f0565b6040516101e09190610848565b60405180910390f35b3480156101f557600080fd5b50610210600480360381019061020b9190610674565b610608565b60405161021d9190610848565b60405180910390f35b600260009054906101000a900473ffffffffffffffffffffffffffffffffffffffff1673ffffffffffffffffffffffffffffffffffffffff16634d1a687d336040518263ffffffff1660e01b815260040161028191906107b6565b60206040518083038186803b15801561029957600080fd5b505afa1580156102ad573d6000803e3d6000fd5b505050506040513d601f19601f820116820180604052508101906102d191906106c6565b610310576040517f08c379a000000000000000000000000000000000000000000000000000000000815260040161030790610808565b60405180910390fd5b806000803373ffffffffffffffffffffffffffffffffffffffff1673ffffffffffffffffffffffffffffffffffffffff168152602001908152602001600020541015610391576040517f08c379a000000000000000000000000000000000000000000000000000000000815260040161038890610828565b60405180910390fd5b6000600160003373ffffffffffffffffffffffffffffffffffffffff1673ffffffffffffffffffffffffffffffffffffffff168152602001908152602001600020549050816000803373ffffffffffffffffffffffffffffffffffffffff1673ffffffffffffffffffffffffffffffffffffffff168152602001908152602001600020600082825461042391906108ca565b9250508190555081600160003373ffffffffffffffffffffffffffffffffffffffff1673ffffffffffffffffffffffffffffffffffffffff16815260200190815260200160002060008282546104799190610874565b925050819055506000600160003373ffffffffffffffffffffffffffffffffffffffff1673ffffffffffffffffffffffffffffffffffffffff1681526020019081526020016000205490506000600360009054906101000a900473ffffffffffffffffffffffffffffffffffffffff1673ffffffffffffffffffffffffffffffffffffffff1663d2445c896040518163ffffffff1660e01b815260040160206040518083038186803b15801561052e57600080fd5b505afa158015610542573d6000803e3d6000fd5b505050506040513d601f19601f82011682018060405250810190610566919061069d565b90508073ffffffffffffffffffffffffffffffffffffffff166108fc859081150290604051600060405180830381858888f193505050501580156105ae573d6000803e3d6000fd5b507fb0a068ff9b2c6f72d5af72f3f94b79d10fe7995889678a9c0f6a33caa63cb4d23384846040516105e2939291906107d1565b60405180910390a150505050565b60016020528060005260406000206000915090505481565b60006020528060005260406000206000915090505481565b60008135905061062f81610975565b92915050565b60008151905061064481610975565b92915050565b6000815190506106598161098c565b92915050565b60008135905061066e816109a3565b92915050565b60006020828403121561068657600080fd5b600061069484828501610620565b91505092915050565b6000602082840312156106af57600080fd5b60006106bd84828501610635565b91505092915050565b6000602082840312156106d857600080fd5b60006106e68482850161064a565b91505092915050565b60006020828403121561070157600080fd5b600061070f8482850161065f565b91505092915050565b610721816108fe565b82525050565b6000610734601083610863565b91507f4e6f7420766572696669656420796574000000000000000000000000000000006000830152602082019050919050565b6000610774601e83610863565b91507f496e73756666696369656e7420746f6b656e7320696e206163636f756e7400006000830152602082019050919050565b6107b08161093c565b82525050565b60006020820190506107cb6000830184610718565b92915050565b60006060820190506107e66000830186610718565b6107f360208301856107a7565b61080060408301846107a7565b949350505050565b6000602082019050818103600083015261082181610727565b9050919050565b6000602082019050818103600083015261084181610767565b9050919050565b600060208201905061085d60008301846107a7565b92915050565b600082825260208201905092915050565b600061087f8261093c565b915061088a8361093c565b9250827fffffffffffffffffffffffffffffffffffffffffffffffffffffffffffffffff038211156108bf576108be610946565b5b828201905092915050565b60006108d58261093c565b91506108e08361093c565b9250828210156108f3576108f2610946565b5b828203905092915050565b60006109098261091c565b9050919050565b60008115159050919050565b600073ffffffffffffffffffffffffffffffffffffffff82169050919050565b6000819050919050565b7f4e487b7100000000000000000000000000000000000000000000000000000000600052601160045260246000fd5b61097e816108fe565b811461098957600080fd5b50565b61099581610910565b81146109a057600080fd5b50565b6109ac8161093c565b81146109b757600080fd5b5056fea2646970667358221220d1ae3f1ebb2d7176163403f96de839fb5bf86a6e186fc3dd716c2d1ff22b647b64736f6c63430008000033",
  "immutableReferences": {},
  "source": "//SPDX-License-Identifier: UNLICENSED\npragma solidity ^0.8.0;\n\nimport \"./KYC.sol\";\nimport \"./GovtDetails.sol\";\n\ncontract Transact{\n    mapping(address=>uint) public tokenBalance;\n    mapping(address=>uint) public taxPaid;\n    KYC kyc;\n    GovtDetails govt;\n\n    constructor (KYC _kyc, GovtDetails _govt){\n        kyc = _kyc;\n        govt = _govt;\n    }\n\n    event TaxPaid(address _who, uint taxBefore, uint taxAfter);\n\n    modifier OnlyVerified(){\n        require(kyc.getKYC(msg.sender), \"Not verified yet\");\n        _;\n    }\n\n    receive() external payable OnlyVerified{\n        tokenBalance[msg.sender] += msg.value;\n    }\n\n    function payTax(uint amount) public OnlyVerified{\n        require(tokenBalance[msg.sender] >= amount, \"Insufficient tokens in account\");\n        \n        uint taxBefore = taxPaid[msg.sender];\n        tokenBalance[msg.sender] -= amount;\n        taxPaid[msg.sender] += amount;\n        uint taxAfter = taxPaid[msg.sender];\n        \n        address payable govtAddress = payable(govt.govtAddress());\n        govtAddress.transfer(amount);\n        \n        emit TaxPaid(msg.sender, taxBefore, taxAfter);\n    }\n}",
  "sourcePath": "/Users/agrim/Desktop/Coding work/BlockchainDev/TaxChain/contracts/Transact.sol",
  "compiler": {
    "name": "solc",
    "version": "0.8.0+commit.c7dfd78e.Emscripten.clang"
  },
  "schemaVersion": "3.4.0",
  "updatedAt": "2021-05-08T21:53:44.209Z",
  "networkType": "ethereum",
  "devdoc": {
    "kind": "dev",
    "methods": {},
    "version": 1
  },
  "userdoc": {
    "kind": "user",
    "methods": {},
    "version": 1
  }
}