{
  "contractName": "Work",
  "abi": [
    {
      "inputs": [
        {
          "internalType": "address",
          "name": "_owner",
          "type": "address"
        }
      ],
      "stateMutability": "nonpayable",
      "type": "constructor"
    },
    {
      "anonymous": false,
      "inputs": [
        {
          "indexed": false,
          "internalType": "address",
          "name": "_from",
          "type": "address"
        },
        {
          "indexed": false,
          "internalType": "uint256",
          "name": "amount",
          "type": "uint256"
        }
      ],
      "name": "ReceivedMoney",
      "type": "event"
    },
    {
      "anonymous": false,
      "inputs": [
        {
          "indexed": false,
          "internalType": "uint256",
          "name": "amount",
          "type": "uint256"
        },
        {
          "indexed": false,
          "internalType": "uint256",
          "name": "remainingBalance",
          "type": "uint256"
        }
      ],
      "name": "TransferredToContractor",
      "type": "event"
    },
    {
      "inputs": [],
      "name": "budget",
      "outputs": [
        {
          "internalType": "uint256",
          "name": "",
          "type": "uint256"
        }
      ],
      "stateMutability": "view",
      "type": "function"
    },
    {
      "inputs": [],
      "name": "owner",
      "outputs": [
        {
          "internalType": "address",
          "name": "",
          "type": "address"
        }
      ],
      "stateMutability": "view",
      "type": "function"
    },
    {
      "stateMutability": "payable",
      "type": "receive"
    },
    {
      "inputs": [
        {
          "internalType": "uint256",
          "name": "amount",
          "type": "uint256"
        }
      ],
      "name": "withdrawMoney",
      "outputs": [],
      "stateMutability": "nonpayable",
      "type": "function"
    }
  ],
  "bytecode": "0x608060405234801561001057600080fd5b5060405161066a38038061066a8339818101604052810190610032919061008d565b806000806101000a81548173ffffffffffffffffffffffffffffffffffffffff021916908373ffffffffffffffffffffffffffffffffffffffff160217905550506100ff565b600081519050610087816100e8565b92915050565b60006020828403121561009f57600080fd5b60006100ad84828501610078565b91505092915050565b60006100c1826100c8565b9050919050565b600073ffffffffffffffffffffffffffffffffffffffff82169050919050565b6100f1816100b6565b81146100fc57600080fd5b50565b61055c8061010e6000396000f3fe6080604052600436106100385760003560e01c806354876921146100965780638da5cb5b146100bf578063ed01bf29146100ea57610091565b3661009157346001600082825461004f919061044e565b925050819055507fe3abd548243c02b6b6adfaa9f4d721e545bef8c1e915fd1158695d8c128be0f53334604051610087929190610390565b60405180910390a1005b600080fd5b3480156100a257600080fd5b506100bd60048036038101906100b891906102ae565b610115565b005b3480156100cb57600080fd5b506100d461026f565b6040516100e19190610375565b60405180910390f35b3480156100f657600080fd5b506100ff610293565b60405161010c91906103f9565b60405180910390f35b60008054906101000a900473ffffffffffffffffffffffffffffffffffffffff1673ffffffffffffffffffffffffffffffffffffffff163373ffffffffffffffffffffffffffffffffffffffff16146101a3576040517f08c379a000000000000000000000000000000000000000000000000000000000815260040161019a906103b9565b60405180910390fd5b478111156101e6576040517f08c379a00000000000000000000000000000000000000000000000000000000081526004016101dd906103d9565b60405180910390fd5b60003390508073ffffffffffffffffffffffffffffffffffffffff166108fc839081150290604051600060405180830381858888f19350505050158015610231573d6000803e3d6000fd5b507f4d5cad599e80b97037bd6cd2da9cd361fc74837cdb6ec7aa1cea6f81a82732828247604051610263929190610414565b60405180910390a15050565b60008054906101000a900473ffffffffffffffffffffffffffffffffffffffff1681565b60015481565b6000813590506102a88161050f565b92915050565b6000602082840312156102c057600080fd5b60006102ce84828501610299565b91505092915050565b6102e0816104a4565b82525050565b60006102f360158361043d565b91507f596f7520617265206e6f7420746865206f776e657200000000000000000000006000830152602082019050919050565b6000610333601e8361043d565b91507f496e73756666696369656e742066756e647320696e20636f6e747261637400006000830152602082019050919050565b61036f816104d6565b82525050565b600060208201905061038a60008301846102d7565b92915050565b60006040820190506103a560008301856102d7565b6103b26020830184610366565b9392505050565b600060208201905081810360008301526103d2816102e6565b9050919050565b600060208201905081810360008301526103f281610326565b9050919050565b600060208201905061040e6000830184610366565b92915050565b60006040820190506104296000830185610366565b6104366020830184610366565b9392505050565b600082825260208201905092915050565b6000610459826104d6565b9150610464836104d6565b9250827fffffffffffffffffffffffffffffffffffffffffffffffffffffffffffffffff03821115610499576104986104e0565b5b828201905092915050565b60006104af826104b6565b9050919050565b600073ffffffffffffffffffffffffffffffffffffffff82169050919050565b6000819050919050565b7f4e487b7100000000000000000000000000000000000000000000000000000000600052601160045260246000fd5b610518816104d6565b811461052357600080fd5b5056fea2646970667358221220c3e6eee80a3b959fc80d3526563588c464bb73a55d20a756c758d4904c5deadd64736f6c63430008000033",
  "immutableReferences": {},
  "source": "//SPDX-License-Identifier: UNLICENSED\npragma solidity ^0.8.0;\n\nimport \"./Contractor.sol\";\n\ncontract Work {\n    address public owner;\n    uint256 public budget;\n\n    constructor(address _owner) {\n        owner = _owner;\n    }\n\n    modifier onlyOwner() {\n        require(msg.sender == address(owner), \"You are not the owner\");\n        _;\n    }\n\n    event TransferredToContractor(uint256 amount, uint256 remainingBalance);\n    event ReceivedMoney(address _from, uint256 amount);\n\n    receive() external payable {\n        budget += msg.value;\n        emit ReceivedMoney(msg.sender, msg.value);\n    }\n\n    function withdrawMoney(uint256 amount) public onlyOwner {\n        require(\n            amount <= address(this).balance,\n            \"Insufficient funds in contract\"\n        );\n        address payable ownerAddr = payable(msg.sender);\n        ownerAddr.transfer(amount);\n        emit TransferredToContractor(amount, address(this).balance);\n    }\n}\n",
  "sourcePath": "/Users/agrim/Desktop/Coding work/BlockchainDev/TaxChain/contracts/Work.sol",
  "compiler": {
    "name": "solc",
    "version": "0.8.0+commit.c7dfd78e.Emscripten.clang"
  },
  "schemaVersion": "3.4.0",
  "updatedAt": "2021-05-08T21:06:15.084Z",
  "devdoc": {
    "kind": "dev",
    "methods": {},
    "version": 1
  },
  "userdoc": {
    "kind": "user",
    "methods": {},
    "version": 1
  }
}